{
  "_format": "hh-sol-artifact-1",
  "contractName": "Auction",
  "sourceName": "contracts/Auction.sol",
  "abi": [
    {
      "inputs": [
        {
          "internalType": "address",
          "name": "_nft",
          "type": "address"
        },
        {
          "internalType": "uint256",
          "name": "_tokenId",
          "type": "uint256"
        }
      ],
      "name": "bid",
      "outputs": [],
      "stateMutability": "payable",
      "type": "function"
    },
    {
      "inputs": [
        {
          "internalType": "address",
          "name": "",
          "type": "address"
        },
        {
          "internalType": "uint256",
          "name": "",
          "type": "uint256"
        },
        {
          "internalType": "address",
          "name": "",
          "type": "address"
        }
      ],
      "name": "bids",
      "outputs": [
        {
          "internalType": "uint256",
          "name": "",
          "type": "uint256"
        }
      ],
      "stateMutability": "view",
      "type": "function"
    },
    {
      "inputs": [
        {
          "internalType": "address",
          "name": "_nft",
          "type": "address"
        },
        {
          "internalType": "uint256",
          "name": "_tokenId",
          "type": "uint256"
        }
      ],
      "name": "cancelAution",
      "outputs": [],
      "stateMutability": "nonpayable",
      "type": "function"
    },
    {
      "inputs": [
        {
          "internalType": "address",
          "name": "_nft",
          "type": "address"
        },
        {
          "internalType": "uint256",
          "name": "_tokenId",
          "type": "uint256"
        },
        {
          "internalType": "uint128",
          "name": "_price",
          "type": "uint128"
        },
        {
          "internalType": "uint256",
          "name": "_duration",
          "type": "uint256"
        }
      ],
      "name": "createTokenAuction",
      "outputs": [],
      "stateMutability": "nonpayable",
      "type": "function"
    },
    {
      "inputs": [
        {
          "internalType": "address",
          "name": "_nft",
          "type": "address"
        },
        {
          "internalType": "uint256",
          "name": "_tokenId",
          "type": "uint256"
        }
      ],
      "name": "executeSale",
      "outputs": [],
      "stateMutability": "nonpayable",
      "type": "function"
    },
    {
      "inputs": [
        {
          "internalType": "address",
          "name": "_nft",
          "type": "address"
        },
        {
          "internalType": "uint256",
          "name": "_tokenId",
          "type": "uint256"
        }
      ],
      "name": "getTokenAuctionDetails",
      "outputs": [
        {
          "components": [
            {
              "internalType": "address",
              "name": "seller",
              "type": "address"
            },
            {
              "internalType": "uint128",
              "name": "price",
              "type": "uint128"
            },
            {
              "internalType": "uint256",
              "name": "duration",
              "type": "uint256"
            },
            {
              "internalType": "uint256",
              "name": "maxBid",
              "type": "uint256"
            },
            {
              "internalType": "address",
              "name": "maxBidUser",
              "type": "address"
            },
            {
              "internalType": "bool",
              "name": "isActive",
              "type": "bool"
            },
            {
              "internalType": "uint256[]",
              "name": "bidAmounts",
              "type": "uint256[]"
            },
            {
              "internalType": "address[]",
              "name": "users",
              "type": "address[]"
            }
          ],
          "internalType": "struct Auction.tokenDetails",
          "name": "",
          "type": "tuple"
        }
      ],
      "stateMutability": "view",
      "type": "function"
    },
    {
      "inputs": [
        {
          "internalType": "address",
          "name": "",
          "type": "address"
        },
        {
          "internalType": "address",
          "name": "",
          "type": "address"
        },
        {
          "internalType": "uint256",
          "name": "",
          "type": "uint256"
        },
        {
          "internalType": "bytes",
          "name": "",
          "type": "bytes"
        }
      ],
      "name": "onERC721Received",
      "outputs": [
        {
          "internalType": "bytes4",
          "name": "",
          "type": "bytes4"
        }
      ],
      "stateMutability": "nonpayable",
      "type": "function"
    },
    {
      "inputs": [
        {
          "internalType": "address",
          "name": "",
          "type": "address"
        },
        {
          "internalType": "uint256",
          "name": "",
          "type": "uint256"
        }
      ],
      "name": "tokenToAuction",
      "outputs": [
        {
          "internalType": "address",
          "name": "seller",
          "type": "address"
        },
        {
          "internalType": "uint128",
          "name": "price",
          "type": "uint128"
        },
        {
          "internalType": "uint256",
          "name": "duration",
          "type": "uint256"
        },
        {
          "internalType": "uint256",
          "name": "maxBid",
          "type": "uint256"
        },
        {
          "internalType": "address",
          "name": "maxBidUser",
          "type": "address"
        },
        {
          "internalType": "bool",
          "name": "isActive",
          "type": "bool"
        }
      ],
      "stateMutability": "view",
      "type": "function"
    },
    {
      "stateMutability": "payable",
      "type": "receive"
    }
  ],
  "bytecode": "0x608060405234801561001057600080fd5b50611251806100206000396000f3fe60806040526004361061007f5760003560e01c80637bed72321161004e5780637bed723214610135578063cdbd4d0114610155578063cf680c6914610175578063dd7689221461019557610086565b8063150b7a021461008b57806359d667a5146100c1578063722565c5146100d65780637792ba5f1461010357610086565b3661008657005b600080fd5b34801561009757600080fd5b506100ab6100a6366004610e15565b6101c2565b6040516100b8919061105c565b60405180910390f35b6100d46100cf366004610eab565b6101ec565b005b3480156100e257600080fd5b506100f66100f1366004610eab565b61043c565b6040516100b89190611126565b34801561010f57600080fd5b5061012361011e366004610eab565b61057e565b6040516100b896959493929190611018565b34801561014157600080fd5b506100d4610150366004610eab565b6105d6565b34801561016157600080fd5b506100d4610170366004610eab565b610920565b34801561018157600080fd5b506100d4610190366004610f0f565b610ad2565b3480156101a157600080fd5b506101b56101b0366004610ed4565b610cbf565b6040516100b891906111ca565b7f150b7a023d4804d13e8c85fb27262cb750cf6ba9f9dd3bb30d90f482ceeb4b1f95945050505050565b6001600160a01b038216600090815260208181526040808320848452909152902060018101546001600160801b031634101561022757600080fd5b6004810154600160a01b900460ff1661023f57600080fd5b4281600201541161026b5760405162461bcd60e51b8152600401610262906110ef565b60405180910390fd5b6001600160a01b0383166000908152600160209081526040808320858452825280832033845290915290205415610326576001600160a01b038316600090815260016020908152604080832085845282528083203380855292528083205490516102d490610ff1565b60006040518083038185875af1925050503d8060008114610311576040519150601f19603f3d011682016040523d82523d6000602084013e610316565b606091505b505090508061032457600080fd5b505b6001600160a01b038316600090815260016020908152604080832085845282528083203384529091529020349055600581015461037c573460038201556004810180546001600160a01b031916331790556103fa565b6005810154600090610390906001906111d3565b9050348260050182815481106103b657634e487b7160e01b600052603260045260246000fd5b9060005260206000200154106103de5760405162461bcd60e51b815260040161026290611071565b503460038201556004810180546001600160a01b031916331790555b600681018054600181810183556000928352602080842090920180546001600160a01b0319163317905560059093018054938401815582529020349101555050565b610444610ce2565b6001600160a01b03838116600090815260208181526040808320868452825280832081516101008101835281548616815260018201546001600160801b0316818501526002820154818401526003820154606082015260048201549586166080820152600160a01b90950460ff16151560a0860152600581018054835181860281018601909452808452949594919360c0860193929083018282801561050957602002820191906000526020600020905b8154815260200190600101908083116104f5575b505050505081526020016006820180548060200260200160405190810160405280929190818152602001828054801561056b57602002820191906000526020600020905b81546001600160a01b0316815260019091019060200180831161054d575b5050509190925250919695505050505050565b6000602081815292815260408082209093529081522080546001820154600283015460038401546004909401546001600160a01b03938416946001600160801b0390931693919291811690600160a01b900460ff1686565b6001600160a01b0382166000908152602081815260408083208484529091529020600281015442101561061b5760405162461bcd60e51b8152600401610262906110b8565b80546001600160a01b0316331461063157600080fd5b6004810154600160a01b900460ff1661064957600080fd5b60048101805460ff60a01b1916905560058101546106cb578054604051632142170760e11b81526001600160a01b03808616926342842e0e9261069492309216908790600401610ff4565b600060405180830381600087803b1580156106ae57600080fd5b505af11580156106c2573d6000803e3d6000fd5b5050505061091b565b805460038201546040516000926001600160a01b031691906106ec90610ff1565b60006040518083038185875af1925050503d8060008114610729576040519150601f19603f3d011682016040523d82523d6000602084013e61072e565b606091505b505090508061073c57600080fd5b60005b60068301548110156108af5760048301546006840180546001600160a01b03909216918390811061078057634e487b7160e01b600052603260045260246000fd5b6000918252602090912001546001600160a01b03161461089d578260060181815481106107bd57634e487b7160e01b600052603260045260246000fd5b60009182526020808320909101546001600160a01b038881168452600183526040808520898652909352918320600687018054939092169390929091908590811061081857634e487b7160e01b600052603260045260246000fd5b60009182526020808320909101546001600160a01b03168352820192909252604090810190912054905161084b90610ff1565b60006040518083038185875af1925050503d8060008114610888576040519150601f19603f3d011682016040523d82523d6000602084013e61088d565b606091505b5050809250508161089d57600080fd5b806108a7816111ea565b91505061073f565b50600482810154604051632142170760e11b81526001600160a01b03878116936342842e0e936108e793309390911691899101610ff4565b600060405180830381600087803b15801561090157600080fd5b505af1158015610915573d6000803e3d6000fd5b50505050505b505050565b6001600160a01b0380831660009081526020818152604080832085845290915290208054909116331461095257600080fd5b6004810154600160a01b900460ff1661096a57600080fd5b60048101805460ff60a01b191690556000805b6006830154811015610a9e578260060181815481106109ac57634e487b7160e01b600052603260045260246000fd5b60009182526020808320909101546001600160a01b0388811684526001835260408085208986529093529183206006870180549390921693909290919085908110610a0757634e487b7160e01b600052603260045260246000fd5b60009182526020808320909101546001600160a01b031683528201929092526040908101909120549051610a3a90610ff1565b60006040518083038185875af1925050503d8060008114610a77576040519150601f19603f3d011682016040523d82523d6000602084013e610a7c565b606091505b50508092505081610a8c57600080fd5b80610a96816111ea565b91505061097d565b508154604051632142170760e11b81526001600160a01b03808716926342842e0e926108e792309216908890600401610ff4565b33610adc57600080fd5b6001600160a01b038416610aef57600080fd5b6000826001600160801b031611610b0557600080fd5b60008111610b1257600080fd5b6040805161010081018252338082526001600160801b03851660208084019190915282840185905260006060840181905260808401819052600160a08501528451818152808301865260c08501528451908152908101845260e08301529151632142170760e11b81529091906001600160a01b038716906342842e0e90610ba190849030908a90600401610ff4565b600060405180830381600087803b158015610bbb57600080fd5b505af1158015610bcf573d6000803e3d6000fd5b5050506001600160a01b038088166000908152602081815260408083208a8452825291829020865181549085166001600160a01b0319918216178255828801516001830180546001600160801b039092166fffffffffffffffffffffffffffffffff1990921691909117905592870151600282015560608701516003820155608087015160048201805460a08a01511515600160a01b0260ff60a01b1993909716951694909417169390931790915560c08501518051869450610c989260058501920190610d44565b5060e08201518051610cb4916006840191602090910190610d8f565b505050505050505050565b600160209081526000938452604080852082529284528284209052825290205481565b60405180610100016040528060006001600160a01b0316815260200160006001600160801b03168152602001600081526020016000815260200160006001600160a01b0316815260200160001515815260200160608152602001606081525090565b828054828255906000526020600020908101928215610d7f579160200282015b82811115610d7f578251825591602001919060010190610d64565b50610d8b929150610de4565b5090565b828054828255906000526020600020908101928215610d7f579160200282015b82811115610d7f57825182546001600160a01b0319166001600160a01b03909116178255602090920191600190910190610daf565b5b80821115610d8b5760008155600101610de5565b80356001600160a01b0381168114610e1057600080fd5b919050565b600080600080600060808688031215610e2c578081fd5b610e3586610df9565b9450610e4360208701610df9565b935060408601359250606086013567ffffffffffffffff80821115610e66578283fd5b818801915088601f830112610e79578283fd5b813581811115610e87578384fd5b896020828501011115610e98578384fd5b9699959850939650602001949392505050565b60008060408385031215610ebd578182fd5b610ec683610df9565b946020939093013593505050565b600080600060608486031215610ee8578283fd5b610ef184610df9565b925060208401359150610f0660408501610df9565b90509250925092565b60008060008060808587031215610f24578384fd5b610f2d85610df9565b93506020850135925060408501356001600160801b0381168114610f4f578283fd5b9396929550929360600135925050565b6001600160a01b03169052565b6000815180845260208085019450808401835b83811015610fa45781516001600160a01b031687529582019590820190600101610f7f565b509495945050505050565b6000815180845260208085019450808401835b83811015610fa457815187529582019590820190600101610fc2565b15159052565b6001600160801b03169052565b90565b6001600160a01b039384168152919092166020820152604081019190915260600190565b6001600160a01b0396871681526001600160801b0395909516602086015260408501939093526060840191909152909216608082015290151560a082015260c00190565b6001600160e01b031991909116815260200190565b60208082526027908201527f43757272656e74206d61782062696420697320686967686572207468616e20796040820152661bdd5c88189a5960ca1b606082015260800190565b60208082526019908201527f446561646c696e6520646964206e6f7420706173732079657400000000000000604082015260600190565b60208082526017908201527f446561646c696e6520616c726561647920706173736564000000000000000000604082015260600190565b602080825282516001600160a01b03168282015282015160009061114d6040840182610fe4565b506040830151606083015260608301516080830152608083015161117460a0840182610f5f565b5060a083015161118760c0840182610fde565b5060c08301516101008060e08501526111a4610120850183610faf565b915060e0850151601f1985840301828601526111c08382610f6c565b9695505050505050565b90815260200190565b6000828210156111e5576111e5611205565b500390565b60006000198214156111fe576111fe611205565b5060010190565b634e487b7160e01b600052601160045260246000fdfea264697066735822122019f5597b86d27439e8f3b1aa6545852a322c6191b05da74eb98ee9c00f47788564736f6c63430008000033",
  "linkReferences": {},
  "deployedLinkReferences": {}
}